:02000000B52920
:10000800FF00030E8301BD000A08BE008A010B1D14
:100018001328A00A0319A10A0B11063081008B1CB2
:10002800172886148B103E088A003D0E8300FF0EA9
:040038007F0E09002E
:06003C00000000000800B6
:0E004200213083120313FD00FD0B252808005A
:100050000F3083120313FC004730FD00FD0B2E28E8
:0A006000FC0B2E2800000000080031
:10006A0083120313C81B3B2887113C288715481B9A
:10007A004028071141280715C81A4528871046281D
:10008A008714481A4A2807104B28071433184F2890
:10009A0007165028071287161E208712C8195728D4
:1000AA0087115828871548195C2807115D280715F4
:1000BA00C81861288710622887144818662807100C
:1000CA006728071433186B2807166C280712871637
:1000DA001E208712331C7328282074282120080028
:1000EA0083120313F801F9011030FC00710DF80DA9
:1000FA00F90D7408F8027508031C750FF902031844
:10010A008D287408F80775080318750FF907031086
:0A011A00F00DF10DFC0B7B2808002E
:0E012400831203133C088A003B088200080087
:100132008312031333104708C80035203314080014
:1001420083120313C301063043020318AF28430886
:100152004107840030308000C30AA42843084107C5
:100162008400800100304006031DB92800303F069C
:10017200031DBC280D29C20180304006F0008030EA
:100182007002031DC62800303F020318D328013035
:10019200C2003F08003CC4004008031C013EC501E8
:1001A200C502D7283F08C4004008C5000530C30077
:1001B20000304506031DDF280030440603190629D6
:1001C20043084107C6000A30F4000030F500440835
:1001D200F0004508F10075207808F0007908F10078
:1001E2003030F0074608840070088000C3030A30EC
:1001F200F4000030F5004408F0004508F1007520D5
:100202007008C4007108C500D928420803190D29D5
:0A021200410884002D308000080030
:10021C002029803083120313BF003329C030BF0064
:10022C0033299430BF003329D430BF0033298030B8
:10023C00BF003329831203133F08013A03190F2916
:10024C003F08023A031914293F08033A03191729E6
:10025C003F08043A03191A291D294003F0003F08EE
:10026C00F0077008BF007008C80035203310C201B9
:10027C00420841078400000803194C294208410731
:10028C0084000008C7009920C20A3E2933140800D4
:10029C008B168B1783160313811281110110811099
:0A02AC0001150630831281000800DE
:1002B6008316031387120712071087100711871179
:1002C600831287120712871107118710071028203B
:1002D600282028208714071487161E208712282016
:1002E60087161E208712282087161E208712282090
:1002F600071087161E208712282087161E208712B1
:100306008710871587161E20871228208711071445
:1003160087161E208712071087161E208712282090
:1003260087161E208712071487161E20871228207C
:10033600071087161E2087128715071587140714BE
:0C03460087161E208712282033140800A0
:1003520092208A110A128000840ABB0A0319BC0A7D
:08036200F003031DA9290800A6
:10036A0083120313A001A1014530A2006C30A3003F
:10037A006130A4007030A5007330A6006530A70074
:10038A006430A8002030A9005430AA006930AB00BC
:10039A006D30AC006530AD003A30AE002030AF00B1
:1003AA00B0018316061486100B165B210C30C800A8
:1003BA0035200130BF000130C0002230C1000E21BB
:1003CA004E21061CEA298614ED290618ED29861005
:1003DA0000302106031DF329FA302006031D0A2ADC
:1003EA00861C0A2AA001A101B10A0319B20A31081E
:1003FA00BF003208C0003430C100A1200230BF0063
:10040A000130C0003430C1000E210618112A8610AE
:0C041A00A001A101B101B201ED29122ADC
:02400E004A2F37
:00000001FF
